:020000040800F2
:10000000F02600209D0100084B1B0008AD170008DA
:10001000491B000875090008DF23000800000000E4
:1000200000000000000000000000000005010008C2
:100030007709000800000000490100084F2200086D
:10004000B7010008B7010008B7010008B7010008B0
:10005000B7010008B7010008B7010008B7010008A0
:10006000B7010008B7010008B7010008B701000890
:10007000B7010008B7010008B7010008B701000880
:10008000B7010008B7010008B7010008B701000870
:10009000B7010008B7010008B7010008B701000860
:1000A000B7010008B7010008B7010008B701000850
:1000B000B7010008B701000800000000B701000800
:1000C000B70100080000000000000000B7010008B0
:1000D00000000000B7010008B701000800000000A0
:1000E000B7010008B7010008B7010008DFF810D019
:1000F00000F09CFB004800473D2D0008AFF3008056
:10010000F0260020224B19680868B0E8F00F80F351
:100110000988BFF36F8F4FF0000080F311884EF015
:100120000D0E70470000000006480068006880F36C
:10013000088862B661B6BFF34F8FBFF36F8F00DFE1
:1001400000BF00BF08ED00E0EFF30980BFF36F8F41
:100150000F4B1A6820E9F00F106008B54FF05000FF
:1001600080F31188BFF34F8FBFF36F8F03F050FA06
:100170004FF0000080F31188BDE808401968086856
:10018000B0E8F00F80F30988BFF36F8F704700BFAE
:100190003C000020EFF305807047000006488047D0
:1001A00006480047FEE7FEE7FEE7FEE7FEE7FEE75C
:1001B000FEE7FEE7FEE7FEE7C3220008ED000008C9
:1001C000202A04DB203A21FA02F00021704721FAAC
:1001D00002F3D040C2F12002914008431946704713
:1001E00040EA01039B0703D009E008C9121F08C0B9
:1001F000042AFAD203E011F8013B00F8013B521E39
:10020000F9D27047D2B201E000F8012B491EFBD2AF
:1002100070470022F6E710B513460A460446194611
:10022000FFF7F0FF204610BD30B505462A460B46C5
:1002300012F8010B13F8014B08B1A042F8D01CB121
:10024000002802D06D1CF1E7284630BD421C10F892
:10025000011B0029FBD1801A70472DE9F04D81EA7E
:10026000030404F0004B21F0004514464FF0000A4F
:1002700023F0004150EA050220D054EA01021DD0CB
:10028000C5F30A570246C5F31303C1F31300C1F3C4
:100290000A5640F4801543F48013A7EB0608101BA0
:1002A000D64608F2FD3873EB050002D308F10108C9
:1002B00001E092185B41B8F1000F03DA002001461B
:1002C000BDE8F08D00204FF48011064684460EE014
:1002D000171B73EB050705D3121B63EB05030643DE
:1002E0004CEA010C49084FEA300092185B4150EA91
:1002F0000107EDD152EA030012D082EA040083EA3A
:100300000501084305D0101BAB4106D20122002392
:1003100006E000224FF0004302E06FF001025310AC
:100320001AEB06004CEB085110EB0A0041EB0B01F5
:10033000BDE8F04D00F0D3B80EB540F23341029164
:100340000021CDE900110A460B4600F0D7F803B0B2
:1003500000BD00F0004220F00040C10DC0F31600C7
:1003600040F400007F2901DA00207047962903DC61
:10037000C1F19601C84001E096398840002AF4D0C6
:100380004042704700F0004230F000400AD0C10DFA
:1003900001F56071C0F3160042EA0151C20840073E
:1003A0001143704700200146704701F0004330B40C
:1003B00021F0004150EA010206D00A0DA2F5607258
:1003C000C1F31301002A02DC30BC00207047440F47
:1003D00044EAC104C100E01830BC00EBC25000F098
:1003E00047B830B50B46014600202022012409E021
:1003F00021FA02F59D4205D303FA02F5491B04FADE
:1004000002F52844151EA2F10102F1DC30BD2DE9F0
:10041000F05F0546002092469B4688460646814688
:1004200040241BE02846414647462246FFF7C8FEC7
:1004300053465A46C01A914110D3114618462246D7
:1004400000F006FA2D1A67EB01084F4622460120FC
:10045000002100F0FDF917EB00094E41201EA4F128
:100460000104DFDC484631462A464346BDE8F09F9A
:100470000029A8BF7047401C490008BF20F00100B8
:10048000704710B4B0FA80FC00FA0CF050EA010496
:1004900004BF10BC704749B1CCF1200421FA04F428
:1004A00011FA0CF118BF012121430843A3EB0C0101
:1004B000CB1D4FEA00614FEA102042BF002010BC64
:1004C000704700EBC35010440029A4BF10BC704714
:1004D000401C490008BF20F0010010BC704710B557
:1004E000141E73F1000408DA401C41F10001921857
:1004F0005B411A4301D120F0010010BD2DE9F04D00
:1005000092469B4611B1B1FA81F202E0B0FA80F254
:100510002032904600F09CF904460F4640EA0A005B
:1005200041EA0B0153465A46084313D0114653EA99
:10053000010019D0C8F140025046FFF741FE0546C0
:100540000E4650465946424600F082F9084305D00F
:10055000012004E020463946BDE8F08D0020054327
:1005600046EAE0762C4337430A986305E40AA0EB99
:1005700008000022FD0A44EA47540A3002D5002050
:100580000146E9E7010510196941DDE9084500194F
:100590006941BDE8F04DA2E72DE9FE4F804681EAB2
:1005A0000300C00F0C46009021F0004123F00045ED
:1005B000B8EB0200A94105D24046214690461C46B0
:1005C0000B46024623F00040104347D0270DC7F3E7
:1005D0000A00C3F30A510290401A019040286BDAD6
:1005E000C3F3130040F4801B0098924620B100230F
:1005F000D2EB030A63EB0B0B01985946C0F14002A2
:10060000504600F025F906460D4650465946019AD7
:1006100000F02DF910EB08006141002487EA115227
:1006200084EAE7731A4340D0009A62B3019A012A20
:100630004FEA075215DC001B61EB02014FF000424C
:1006400002EA0752CDE90042001C41F58011324612
:100650002B46FFF753FF03B0BDE8F08F404621461D
:10066000F9E7001B61EB0201001C41F58013001843
:100670005B412018A2F5001747EB030140EAD57053
:10068000B6196D4111E06D084FEA360645EAC075AE
:100690004FEA0752001B61EB0201001C41F580117B
:1006A00049084FEA30000019514132462B4603B049
:1006B000BDE8F04FFFF713BF009801224000002370
:1006C000D0EB020263EBE073009821464FEAE0743E
:1006D000B8EB000061EB0401E9E783F000435BE75E
:1006E00081F0004158E72DE9FE4F81EA030404F050
:1006F000004421F0004100944FF0000B23F0004330
:1007000050EA01045ED052EA03045BD0C3F30A54FA
:10071000C1F30A552C44A4F2F3340194A0FB025413
:10072000C1F3130141F48011C3F3130343F48013A5
:1007300001FB024400FB034E840A970A44EA8154F9
:1007400047EA8357A4FB076802958D0A05FB0785D6
:100750004FEA932C04FB0C542705029D4FEA0658E0
:1007600047EA1637B5EB08056EEB070C870E920EBD
:1007700047EA811742EA8312A7FB0201B6EB0B019D
:1007800064EB00042B0D43EA0C335E1844EB1C5061
:10079000DA465146E7FB0201C5F313044FEA0B3377
:1007A00043EA14534FEA0432019C43EA0603A4F1DE
:1007B0000C040294009CCDE900B4FFF79FFE03B047
:1007C000BDE8F08F00200146F9E7C1F30A52C1F3FA
:1007D000130140F2FF3341F480119A4202DA002003
:1007E0000146704740F233439A42A2F2334202DCA0
:1007F0005242FFF7E5BC00F02BB8000030B5041EF4
:1008000071F1000404DB4FF00044404264EB01014D
:10081000141E73F1000405DB1C464FF000435242E6
:1008200063EB0403994208BF904230BD064C074D6C
:1008300006E0E06840F0010394E8070098471034B0
:10084000AC42F6D3FFF756FC84470008A4470008E3
:10085000202A04DB203A00FA02F100207047914080
:10086000C2F1200320FA03F3194390407047202A75
:1008700006DBCB17203A41FA02F043EAE07306E0C8
:1008800041FA02F3D040C2F12002914008431946D8
:10089000704700008CB01F4D4FF0FF3632460AA95A
:1008A000286903F067F800282FD00B98FFF751FD57
:1008B00004460A28024606DA17A1684601F0A0FDA0
:1008C00022461BA105E020A1684601F099FD2246C1
:1008D00022A105A801F094FD4FF47A742346132257
:1008E0006946234800F00AFF642002F055FA2346C7
:1008F000132205A91E4800F001FF14216846FFF7E6
:1009000088FC142105A8FFF784FC012002F044FABA
:10091000C4E700000000002041542B544553543DCF
:10092000322C303238322C3025780D0A000000008D
:1009300041542B544553543D362C303238322C30F0
:1009400025780D0A0000000041542B544553543DB6
:10095000322C303238322C25640D0A0041542B548D
:100960004553543D362C303238322C25640D0A0064
:10097000F4040020FEE7704770B5A2B005244FF4E0
:100980007A754FF4007625E0802101A8FFF741FC3D
:1009900031461248FFF73DFC11A0009010A311A2B0
:1009A00013A101A801F02CFD01A800F07DF92B4650
:1009B00032460A49194800F03FFE084918A001F0E4
:1009C0000FFD1CA1054800F081F9002804D128463C
:1009D00000F08AF9641ED7D222B070BD6C1E0020D0
:1009E000000000003232303232373135313500000C
:1009F00041542B4D515454555345524346473D3075
:100A00002C312C222573222C222573222C22257393
:100A1000222C302C302C22220D0A00003805002018
:100A200041542B4D515454555345524346473A2552
:100A3000730D0A004F4B000070B5A0B0FFF79CFF8C
:100A400005244FF47A754FF4007622E08021684641
:100A5000FFF7DFFB31461148FFF7DBFB10A214A1C3
:100A6000684601F0CDFC684600F01EF92B46324680
:100A70000A49164800F0E0FD084915A001F0B0FC55
:100A800018A1064800F022F9002805D1284600F0F8
:100A90002BF9641EE4B2D9D220B070BD6C1E0020C8
:100AA0003131382E3139302E3231372E3232320058
:100AB00041542B4D515454434F4E4E3D302C222522
:100AC00073222C313838332C310D0A0038050020C0
:100AD00041542B4D515454434F4E4E3A25730D0AF9
:100AE000000000004F4B000070B5A0B000F096F879
:100AF00005244FF47A754FF4007629E080211748D9
:100B0000FFF787FB80216846FFF783FB14A317A23A
:100B100018A1684601F074FC684600F0C5F82B4641
:100B200032460E49194800F087FD0C4918A001F023
:100B300057FC1BA1094800F0C9F800280BD119A1E6
:100B4000064800F0C3F8002805D1284600F0CCF88C
:100B5000641EE4B2D2D220B070BD00006C1E002032
:100B600044454C4C313233343536000044454C4C0E
:100B70000000000041542B43574A41503D22257349
:100B8000222C222573220D0A0000000038050020C7
:100B900041542B43574A41503A25730D0A00000037
:100BA0004F4B0000434F4E4E454354454400000018
:100BB00070B505244FF47A7519E080210E48FFF7CF
:100BC00028FB0EA000F070F82B4680220A490F483F
:100BD00000F032FD08490EA001F002FC0EA106480B
:100BE00000F074F8002805D1284600F07DF8204672
:100BF000641EE2D270BD00006C1E002041542B52D6
:100C00004553544F52450D0A00000000380500209E
:100C100041543A25730D0A004F4B000070B505246E
:100C20004FF47A754FF4007622E080211248FFF7E6
:100C3000F0FA31461148FFF7ECFA012210A10E48F4
:100C400001F0DEFB0C4800F02FF82B4632460B4932
:100C50000F4800F0F1FC09490EA001F0C1FB11A101
:100C6000064800F033F8002805D1284600F03CF88B
:100C7000641EE4B2D9D270BD6C2200206C2000202A
:100C800041542B43574D4F44453D25640D0A000008
:100C90003805002041542B43574D4F44453D2573A3
:100CA0000D0A00004F4B000010B50446FFF7CEFAC6
:100CB000214682B2BDE810404FF47A73014800F03B
:100CC0001DBD00003805002072B6FEE770B5054670
:100CD0000C460A2000F008F821462846FFF7A4FA3F
:100CE000002800D0012070BD70B5044600F0F4F873
:100CF0000546601C02D004480078044400F0ECF87B
:100D0000401BA042FAD370BD2C0000202DE9F84F03
:100D1000DFF89491002409F1040A0AF1040B234638
:100D20004FF00F080BF1040EB7E00127A7403A403F
:100D3000BA4272D1DFF874C14D68A5EB0C06654567
:100D40002BD00DDC032D34D005DC35B3012D19D0AB
:100D5000022D2FD11BE0112D16D0122D2AD119E012
:100D6000B6F5881F19D006DCB6F5803F15D0B6F56C
:100D7000801F1FD111E0B6F5001F0ED0B6F5041F7D
:100D800018D10AE0CB6815E0CB681B1D12E0CB68D8
:100D900008330FE0CB680C330CE08B682BB1012BD0
:100DA0004FF0080303D0476104E0042302E0076129
:100DB00000E00023FF2A01D8064601E000F1040606
:100DC0004FEA840501D9A5F12005376808FA05FC2A
:100DD00027EA0C0703FA05F547EA050737604D686F
:100DE000ED0059D5324DAE6946F00106AE61AD69F0
:100DF00024F0030605F0010500952E4D7719BE6815
:100E0000A5072D0F08FA05FC26EA0C06DFF8A8C096
:100E1000604503D14FF0000C10E03DE0DFF89CC0CE
:100E2000604502D14FF0010C08E0DFF894C0604546
:100E300002D14FF0020C01E04FF0030C0CFA05FC5C
:100E40004CEA060CC7F808C04D68D9F80060ED03FD
:100E50004D4601D5164300E096432E604D68DAF802
:100E60000060AD03554601D5164300E096432E6061
:100E70004D68DBF80060ED025D4601D5164300E0E9
:100E800096432E604D68DEF80060AD02754601D5D0
:100E9000164300E096432E60641C0A6832FA04F59B
:100EA0007FF443AFBDE8F88F00040140000011104B
:100EB000001002400000014000080140000C014009
:100EC000001001408068084000D0012070470AB13E
:100ED000016170470904FBE7014880687047000022
:100EE0002C0000200248816802781144816070471C
:100EF0002C000020074810B5016841F01001016086
:100F0000032000F06DF80F2000F006F800F024F840
:100F1000002010BD0020024070B50D4D04464FF476
:100F20007A712878B1FBF0F00A490968B1FBF0F05A
:100F300000F0E6FA48B9102C07D200222146501ED4
:100F400000F02EF800206C6070BD012070BD000024
:100F50002C000020380000200F4808B5816941F0BE
:100F600001018161816901F001010091C16941F0D4
:100F70008051C161C069002200F0805000900F21B3
:100F8000901E00F00DF80549486820F0E06040F040
:100F90000070486008BD00000010024000000140E1
:100FA000F0B40E4B1B68C3F30223C3F10704042CF7
:100FB00000D904241D1D072D01D2002300E0DB1EF3
:100FC000012606FA04F56D1E0D409D409E40761EDA
:100FD000164045EA0601F0BC01F026BA0CED00E02F
:100FE000064A00F0070110684FF6FF03184040EA78
:100FF0000120034908431060704700000CED00E039
:101000000000FA052DE9F0470D46040067D0DFF82F
:101010001881D8F8000000F00700A8420CD2D8F8D8
:10102000001021F007012943C8F80010D8F800008B
:1010300000F00700A84252D120683C4E810712D52B
:10104000400703D5706840F4E060706020780007C6
:1010500003D5706840F4605070607068A16820F03B
:10106000F000084370602078C00727D0606801282E
:1010700010D03168022810D0890700292FDA716852
:1010800021F0030101437160FFF726FF074641F29B
:1010900088390CE031688903EFE78901EDE7FFF754
:1010A0001BFFC11B494502D90320BDE8F0877068CA
:1010B000616800F00C00B0EB810FF0D1D8F800109F
:1010C000404601F00701A9420BD9016821F0070150
:1010D00029430160006800F00700A84201D0012008
:1010E000E3E72078400705D57068E16820F4E06008
:1010F000084370602078000706D57068216920F4E5
:10110000605040EAC100706000F038F87168084A29
:10111000C1F30311515CC8400649086006480068E5
:10112000FFF7FAFE0020C0E7002002400010024056
:10113000303F0008380000203000002004480549F6
:1011400000684968044AC1F30221515CC8407047F5
:101150003800002000100240403F000804480549C4
:1011600000684968044AC1F3C221515CC840704715
:101170003800002000100240403F000812A085B057
:101180000FC88DE80F0014A0144B00680490596834
:10119000134801F00C02042A10D0082A0ED1C1F322
:1011A0008342C9031DF802000AD5596804AAC1F395
:1011B0004041515C0A4A5043B0FBF1F005B0704722
:1011C00008494843FAE70000020304050607080936
:1011D0000A0B0C0D0E0F101001020000001002404F
:1011E00000127A0000093D002DE9F84F04006FD08D
:1011F0002078BE4DC00747D06868C0F38100012841
:1012000007D06868C0F38100022809D16868C0036C
:1012100006D52868800337D560680028E7D033E01A
:101220006068B0F5803F0BD010B1B0F5A02F11D0A1
:10123000286820F480302860286820F4802002E0AC
:10124000286840F480302860606888B1FFF744FE69
:10125000064609E0286840F480202860F0E7FFF7A0
:101260003BFE801B642873D828688003F7D50BE009
:10127000FFF732FE064604E0FFF72EFE801B6428CF
:10128000F1D828688003F7D42078DFF864828007DB
:101290004FF0010A4FF0000939D5686810F00C0FC3
:1012A00007D06868C0F38100022809D16868C003CC
:1012B00006D42868800714D52069012808D110E0D9
:1012C0002069B0B1C8F800A0FFF706FE064605E0A9
:1012D00007E1FFF701FE801B0228C4D828688007B9
:1012E000F7D52868616920F0F80040EAC10028605D
:1012F0000DE0C8F80090FFF7EFFD064604E0FFF7A9
:10130000EBFD801B022823D828688007F7D42078BB
:1013100000072CD57748A169D9B1C0F800A0FFF724
:10132000DBFD064604E0FFF7D7FD801B02280FD83F
:10133000686A8007F7D570484FF4FA510068B0FB2F
:10134000F1F0009000BF0098411E0091FAD20EE02B
:101350007CE0C0F80090FFF7BFFD064604E0FFF711
:10136000BBFD801B022871D8686A8007F7D42078FB
:1013700040075BD5E8690027C00008D4E86940F061
:101380008050E861E869012700F0805000905B48D8
:101390000168C90511D40168834641F48071016078
:1013A000FFF79AFD064604E0FFF796FD801B6428D0
:1013B0004CD8DBF80000C005F6D5E06801280AD05B
:1013C00008B1052813D0286A20F001002862286A95
:1013D00020F0040002E0286A40F001002862E06882
:1013E00041F2883B88B1FFF777FD064609E0286A9D
:1013F00040F004002862EEE7FFF76EFD811B5945BF
:101400005BD8286A8007F7D50BE0FFF765FD064635
:1014100004E0FFF761FD811B59454ED8286A80071B
:10142000F7D41FB1E86920F08050E861E069A8B303
:101430006968C1F38101022946D00228484606D0D6
:10144000C8F86000FFF748FD044639E035E047463C
:10145000C8F86000FFF740FD064604E0FFF73CFDDA
:10146000801B022829D828688001F7D4206AB0F5AB
:10147000803F05D16868A16820F4003008436860A7
:10148000D4E908010843696821F4741108436860CD
:10149000C7F860A0FFF720FD044605E023E0FFF752
:1014A0001BFD001B022808D828688001F7D51AE028
:1014B000FFF712FD001B022802D90320BDE8F88FB8
:1014C00028688001F4D40EE00128F7D06868226A09
:1014D00000F48031914204D1616A00F470108842B6
:1014E00001D00120EAE70020E8E7000000100240F8
:1014F0000000424280044242380000200070004058
:1015000010B5401EB0F1807F01D3012010BD4FF017
:10151000E02460610F21601700F086FF0020A061C9
:1015200007202061002010BD70B5040004D094F89D
:101530003D00002510B106E0012070BD84F83C504C
:10154000204600F023F8242084F83D002068C1687C
:1015500021F40051C160204600F0B4FE206801690A
:1015600021F4904101612068416921F02A01416123
:101570002068C16841F40051C1602564202084F8CE
:101580003D0084F83E00002070BD000070B586B0BC
:10159000002400940194029403940068224E23498D
:1015A00002220323224DB04219D1886940F48040C1
:1015B0008861886900F480400490886940F00400E4
:1015C00088618869039300F0040004904815CDE910
:1015D000000269462846FFF799FB28151BE0154EC7
:1015E000B0421FD1C86940F40030C861C86900F436
:1015F00000300490886940F0040088618869694679
:1016000000F0040004900420CDE900020393284672
:10161000FFF77CFB0820CDE90004694628460294C8
:10162000FFF774FB06B070BD0038014000100240A7
:1016300000080140004400402DE9F84F044690F8AE
:101640003E00984615460E46202855D10EB305B3E8
:1016500094F83C0001284FD0012084F83C004FF062
:101660000009C4F84090222184F83E10C4F830905C
:10167000FFF732FCA5858246E585A0684FF48057C8
:10168000B84201D1206938B13546002684F83C9033
:1016900027E00120BDE8F88F0025F7E75346002238
:1016A00020212046CDF8008000F068FE08B103201C
:1016B000F0E725B1A068B8421BD038B108E0206837
:1016C0004068C0F3080026F8020B07E0206980B1EB
:1016D0002068406800F07F0005F8010BE08D401E97
:1016E000E085E08D0028D9D1202084F83E0000203C
:1016F000D0E720684068EFE70220CBE72DE9F84308
:10170000044690F83D001F4615460E4620284BD152
:10171000C6B1BDB194F83C00012845D0012084F841
:101720003C004FF00008C4F84080212084F83D00C0
:10173000FFF7D2FBA5848146E584A068B0F5805F01
:1017400003D004E00120BDE8F883206920B13546CC
:10175000002684F83C800EE00025FAE78021204630
:1017600000F00CFEA0B9ADB115F8010B216848607E
:10177000E08C401EE084E08C4B464FF00002009766
:101780000028EBD14FF04001204600F0F7FD30B1CA
:101790000320D8E736F8020BC0F30800E6E7202064
:1017A00084F83D000020CEE70220CCE7FEE708B534
:1017B0000090411E009101D30846FAE708BD0000E1
:1017C00070B5174E0024224620213046FFF77FFBDC
:1017D000012210213046FFF77AFB6420FFF7E7FF74
:1017E000012220213046FFF772FB4FF47A750AE0A0
:1017F000641CAC4207DB002220213046FFF767FB68
:101800004FF0FF3070BD10213046FFF75BFB002822
:10181000EED1002220213046FFF759FB012070BD98
:10182000000C014010B50C4C012220212046FFF78E
:101830004EFB012210212046FFF749FB6420FFF7F1
:10184000B6FF002210212046FFF741FBBDE8104003
:101850006420FFF7ACBF0000000C014010B50C4C39
:10186000012220212046FFF732FB002210212046D2
:10187000FFF72DFB6420FFF79AFF0122102120467D
:10188000FFF725FBBDE810406420FFF790BF000084
:10189000000C014070B5134E0546002400222021A3
:1018A0003046FFF714FB6420FFF781FF280601D5BF
:1018B000012200E0002210213046FFF708FB6806F5
:1018C000050E012220213046FFF701FB6420FFF7BF
:1018D0006EFF641CE4B2082CE0D3BDE87040FFF753
:1018E0006FBF0000000C01401CB51D4D1D4C4FF09A
:1018F000FF3632466946286902F03CF858B31A4967
:101900000198884206DD002240212046FFF7DFFAD9
:10191000012217E0154988420BDD002240212046B4
:10192000FFF7D5FA002280212046FFF7D0FA0122E6
:101930000DE0B0F5000F0EDB012240212046FFF73D
:10194000C6FA002280212046FFF7C1FA002220219A
:101950002046FFF7BCFA012001F01EFAC9E700009B
:1019600000000020000801400000F0410000A041FC
:1019700010B5AAB000F022FCFFF71AF94FF47A7400
:101980002046FFF7B1F9FFF7AFF82046FFF7ACF9B3
:10199000FFF752F8002208210A2001F0D1FE224C64
:1019A0001C22224920616846FEF71AFC0021684685
:1019B00001F0FEF91D4960611C221C3107A8FEF7E9
:1019C0000FFC002107A801F0F3F91849A0611C22BF
:1019D00038310EA8FEF704FC00210EA801F0E8F94A
:1019E0001249E0611C22543115A8FEF7F9FB0021D1
:1019F00015A801F0DDF90D4920621C2270311CA8E8
:101A0000FEF7EEFB00211CA801F0D2F90749606245
:101A10001C228C3123A8FEF7E3FB002123A801F050
:101A2000C7F9A0622AB010BD00000020883E00085F
:101A30002DE9F04186B000242448009401940294DA
:101A40000394816941F010018161816901F0100105
:101A50000491816941F020018161816901F02001D7
:101A60000491816941F004018161816901F00401FF
:101A70000491816941F0080181618069144F00F08F
:101A8000080004900022E0213846FFF720FADFF832
:101A90004480002233214046FFF719FAE020012557
:101AA0000226CDE90005CDE9024669463846FFF732
:101AB0002DF93320CDE90005CDE9024669464046BF
:101AC000FFF724F906B0BDE8F081000000100240E5
:101AD00000080140000C01400C4810B50A490160A3
:101AE0004FF4E1314160002181600C22C160C0E906
:101AF00004128161C161FFF717FD002803D0BDE822
:101B00001040FFF7E1B810BD00380140F404002098
:101B10000C4810B50A4901604FF4E13141600021E1
:101B200081600C22C160C0E904128161C161FFF7CC
:101B3000FBFC002803D0BDE81040FFF7C5B810BD7E
:101B40000044004038050020FEE7FEE7A2B0194C33
:101B50004FF0FF352A4620A9206901F00BFF28B37A
:101B60002098FEF70FFC02460B4613A1684600F0D2
:101B700047FC2198FEF706FC02460B4611A110A86F
:101B800000F03EFC00F024F86A460021042000F03A
:101B90000BF910AA0021062000F006F94021684642
:101BA000FEF737FB402110A8FEF733FB012001F0C0
:101BB000F3F8CFE700000020434F323A25322E667B
:101BC0000000000054564F533A25322E66000000A4
:101BD00010B5A0B0002480216846FEF71AFB002152
:101BE000204600F099F88021684600F005F9641C51
:101BF000E4B2082CF3D320B010BD10B56420FFF779
:101C000073F8022000F071F83F2000F060F8002027
:101C100000F050F8402000F088F8A12000F0DBF838
:101C2000C82000F0D8F80021012000F017F87F202C
:101C300000F093F8A42000F0CEF8A62000F0CBF836
:101C40000821002000F014F800F009F8022000F04C
:101C500073F8BDE81040AF2000F0BDB8704710B574
:101C60008D2000F0B8F8BDE81040142000F0B3B8A3
:101C700070B50C4605460F280BD80F2C09D8D52077
:101C800000F0A9F805EB0410BDE87040C0B200F008
:101C9000A2B870BD10B504467F280AD804F00F0022
:101CA00000F099F8102000EB1410BDE8104000F08F
:101CB00092B810BD10B50446402807D2D32000F0DA
:101CC0008AF82046BDE8104000F085B810BD10B578
:101CD00004460F38322807D2A82000F07CF82046AE
:101CE000BDE8104000F077B810BD10B504460228DA
:101CF00002D00CB1012C07D1202000F06CF8204656
:101D0000BDE8104000F067B810BD072803D8B03018
:101D1000C0B200F060B8704710B50C46FFF7F5FF91
:101D20002046BDE81040FFF7B5BF3F2803D800F0BC
:101D30007F0000F050B8704710B5040003D0022CAB
:101D400001D0032C08D1DB2000F045F82007BDE8C6
:101D50001040000E00F03FB810BD10B504468120C1
:101D600000F039F82046BDE8104000F034B800001B
:101D700070B514460E460546FFF7CEFF0948082108
:101D800000EB0410044600F037F86D1CE8B2314651
:101D9000FFF7C2FF04F10800BDE87040082100F021
:101DA0002BB80000483F000870B516460D460446A3
:101DB0000DE029462046FFF7DBFF0835EDB27F2D09
:101DC00001D9A41CE4B2072C00D90024761C327877
:101DD000002AEED170BD10B50446FFF723FD782030
:101DE000FFF758FD0020FFF755FD2046FFF752FD95
:101DF000BDE81040FFF732BD70B50D460646FFF74F
:101E000011FD7820FFF746FD4020FFF743FD002439
:101E100004E0305DFFF73EFD641CE4B2AC42F8D351
:101E2000BDE87040FFF71ABD90B0174D4FF0FF3678
:101E300032460EA9286901F09DFD08B30F98FEF700
:101E4000A1FA04460F460E98FEF79CFACDE900472A
:101E500002460B460DA10AA800F0D2FA0AAB0EA268
:101E600011A102A800F0CCFA02A8FEF71DFF202164
:101E700002A8FEF7CEF900200A900B900C900D906E
:101E8000012000F089FFD3E700000020252E3266F4
:101E90005C2C252E3266000066726F6D2F53475002
:101EA00033302F446174610041542B4D51545450D0
:101EB00055423D302C222573222C222573222C30B2
:101EC0002C300D0A000000001FB500200190029088
:101ED000022000900120039069460248FEF716FF99
:101EE0001FBD0000000C01401FB500200290012022
:101EF0000221CDE90010039069460248FEF706FF73
:101F00001FBD0000000C01401CB5264C4FF4C875E5
:101F10000821202000F07CF900F059F9010C80B272
:101F2000A94205D120B9208810B1401E208034E09C
:101F3000E06810E00821202000F06AF900F047F97D
:101F40006268010C11446160A16880B20844A0601D
:101F5000E068401EE0600028ECD16068FEF7ECF914
:101F6000114E00223346FEF778F9FEF71EFA009074
:101F7000A068FEF7E1F900223346FEF76EF9FEF79E
:101F800014FA002301905A1E6946206901F040FCB2
:101F90000020A06060600520E0604FF4FA7000F05F
:101FA000FBFEB5E7000000200000144010B586B02D
:101FB000002002900D48816941F00801816180692B
:101FC0000B4C00F0080004900120019000900320C9
:101FD000039069462046FEF799FE0221009169466A
:101FE0002046FEF793FE06B010BD00000010024030
:101FF000000C014070B5094C0025C4F8805104F56F
:10200000C074FFF771FF6560142000F082FE0120AC
:102010002060142000F07DFE256070BD008021420C
:1020200070B5094C0026C4F8806104F5C074FFF750
:102030005BFF01256560142000F06BFE2560142015
:1020400000F067FE266070BD008021422DE9F05F40
:1020500082460024FFF738FF0025154EDFF854B004
:102060002F464FF001084FF6FF79C6F88071142013
:1020700000F04FFEC6F8808109EA44040221584668
:10208000FEF720FF08B1641CA4B2142000F041FE4A
:102090006D1CEDB2082DE8D3BAF1000F04D0FFF7A4
:1020A000A9FF2046BDE8F09FFFF7BAFFF9E700005F
:1020B00000802142000C01402DE9F0410546FFF768
:1020C00013FF134E0027C6F880713C464FF00108FD
:1020D000280602D5C6F8848101E0C6F88471680636
:1020E000050E142000F015FEC6F88081142000F0C3
:1020F00010FEC6F88071142000F00BFE641CE4B2E0
:10210000082CE5D3BDE8F041142000F002BE000029
:102110000080214270B5FFF7E7FE094C0120C4F8AA
:102120008401C4F88001142004F5C07400F0F1FDAE
:1021300000256560142000F0ECFD256070BD0000F6
:102140000080214210B5FFF7CFFE094C0020C4F8F3
:102150008001C4F88401142004F5C07400F0D9FD96
:10216000012020606060BDE81040142000F0D1BD67
:102170000080214270B50F4D01260024C5F884610E
:10218000FFF7A2FEC5F880610A2000F0C2FD0A4EEA
:1021900007E0641CE4B2FA2C03D9FFF7D3FF012057
:1021A00070BD02213046FEF78DFE0028F1D1C5F842
:1021B000800170BD00802142000C014010B5FFF786
:1021C000F5FE0321BDE81040202000F021B810B535
:1021D000FFF7A0FFB120FFF76FFFFFF7CBFF012054
:1021E000FFF734FF04020120FFF730FF0444012011
:1021F000FFF72CFF24020120FFF728FF20440402F0
:102200000020FFF723FF0444FFF79CFF204610BD8A
:1022100070B50D460446FFF77DFFB020FFF74CFF79
:10222000FFF7A8FF2046FFF747FFFFF7A3FF284669
:10223000FFF742FFFFF79EFFFFF784FFBDE8704006
:10224000642000F05BBD012000F0A6FDFBE710B5A7
:10225000FEF748FE01F0BEFC012803D0BDE81040A7
:1022600001F058BA10BD30B58FB028216846FDF78F
:10227000D0FF14210AA8FDF7CCFF0120010400249F
:102280008DE8130004904FF4E010CDE9081002250A
:1022900007956846FEF7A8FF08B172B6FEE70F2063
:1022A000CDE90A054FF48060CDE90C4002210AA86F
:1022B0000E94FEF7A7FE002801D072B6FEE70FB01D
:1022C00030BD704770B5044600680169E26821F4CA
:1022D000405111430161A1682069014360690143D4
:1022E0002068C26841F20C639A430A43C2602068C6
:1022F0004169A26921F44071114341611E4920687E
:10230000884202D1FEF72AFF01E0FEF717FF00EB3B
:10231000C00101EB0011606864228000B1FBF0F3A2
:10232000B3FBF2F36FF018067343B1FBF0F5B1FBAA
:10233000F0F605EB8305322303EB0515B5FBF2F54B
:10234000B6FBF2F605F0F00505EB0615B1FBF0F66D
:10235000B1FBF0F0B0FBF2F06FF01801484306EB70
:10236000800003EB0010B0FBF2F0216800F00F00DA
:102370002844886070BD0000003801402DE9F0411C
:102380001E46174688460446069D1CE0681C1AD067
:1023900025B1FEF7A1FD801BA84214D92068C168B1
:1023A00021F4D071C1602068416921F001014161CF
:1023B000202084F83D0084F83E00002084F83C0092
:1023C0000320BDE8F0812068016838EA010004D0EC
:1023D0000020B842DAD00020F3E70120F9E7FEE759
:1023E0000FB4054B10B503A9044A029800F0FEF89B
:1023F00010BC5DF814FB0000252D00089C00002097
:102400000FB4084B10B504A902AA039800F0EEF827
:10241000044602A9002000F06CFC204610BC5DF8C8
:1024200014FB0000F32C00080907090E002804DB48
:1024300000F1E02080F80014704700F00F0000F178
:10244000E02080F8141D704702E008C8121F08C180
:10245000002AFAD170477047002001E001C1121F25
:10246000002AFBD1704700002DE9FF5F82B00021F8
:10247000DDE90430020DDDF840B0034318D044F626
:102480001050A2F2FF3242431514119801281FD0B8
:10249000A5EB0B00401C5FEA000A4FF000064E4F10
:1024A000DFF83891B046504615D5CAF1000413E064
:1024B000119801244AA3012801D16FEA0B01029867
:1024C000119AC0E90031C0E9024206B0BDE8F09FB0
:1024D000CBF10000DFE704460021404A491842EBF7
:1024E0000450CDE9001012E0E00707D032463B4629
:1024F00040464946FEF7F7F88046894632463B4655
:1025000010461946FEF7EFF806460F466410002CF9
:10251000EAD1DDE90401DDE90023BAF1000F06DAB2
:10252000FEF7E1F842464B46FEF7DDF805E0FDF721
:1025300094FE42464B46FDF790FE04460E460022AE
:10254000284BFEF75BF903D84FF0FF30014607E058
:102550000022254B20463146FEF71EF8FEF735F9DE
:10256000102409E0002C0ADB0A220023FDF74FFFAC
:10257000039B30321A55641E50EA0102F2D1641CEA
:10258000039AC4F111031444119A012A03D00122C1
:1025900008430DD10AE0084304D000204FF0110B8E
:1025A000119072E7A3EB0B056D1E0DE05B4504DD9A
:1025B0004FF0000205F1010504E003DA4FF00002DC
:1025C000A5F10105002AECD002981199C0E9023169
:1025D000C0E9004579E70000000014400000F03F2A
:1025E000300000000000F0430000E03F2DE9FF4F05
:1025F00095B09A46884606460025EEE1252877D113
:1026000000242746F94A0121039400E0044316F808
:10261000013F203B01FA03F01042F7D130782A281D
:1026200011D06FF02F033078A0F13002092A16D8AC
:10263000039A44F0020402EB820203EB42021044CC
:10264000761C0390EFE758F8042B0392002A03DA74
:10265000504244F40054039044F00204761C307855
:102660002E2816D116F8010F44F004042A280DD0A4
:102670006FF02F023078A0F13003092B09D807EB57
:10268000870302EB4303C718761CF3E758F8047B73
:10269000761C30786C280FD006DC4C2817D06828C0
:1026A0000DD06A2814D104E0742810D07A280FD1F4
:1026B0000DE044F400140AE044F4801401E044F412
:1026C00040147278824202D104F58014761C761C84
:1026D000307866280BD013DC582877D009DC002826
:1026E00075D04528F6D04628F4D047281AD193E172
:1026F00018E0632835D0642879D0652812D18BE1A1
:10270000702873D008DC6728F1D069286FD06E2854
:102710000DD06F2806D1ACE073282CD0752874D06A
:10272000782853D05246179990476D1C54E1C4F352
:102730000250022809D003280DD0D8F80010042830
:102740000DD00D6008F1040846E1D8F80010EA1732
:10275000C1E90052F6E7D8F800100D80F2E70D70DD
:10276000F0E718F8041B8DF8001000208DF8010028
:10277000EB46012003E058F804BB4FF0FF3061073F
:102780004FF0000102D40DE009F101018946B94280
:102790000FDA8145F8DB1BF809100029F4D108E0B5
:1027A00009F1010189468142FADB1BF80910002971
:1027B000F6D103985346A0EB090721463846179AED
:1027C00000F080FA284400EB090507E044E008E146
:1027D0000DE01BF8010B524617999047B9F101091A
:1027E000F7D2534621463846179AF2E039E00A21DB
:1027F000C4F302524FF0000B0091022A06D058F8A1
:10280000040BC117032A09D00AE023E008F10700EE
:1028100020F00702F2E80201904605E000B2C1177D
:10282000042A01D140B2C117002906DA0A46002164
:10283000404261EB02012D2202E0220504D52B2249
:102840008DF80420012203E0E20701D02022F7E7FF
:10285000914657E00A2100E010214FF0000B009153
:102860000BE010214FF0000B44F004040827009106
:1028700003E008204FF0000B0090C4F30252022A3C
:1028800005D058F8040B0021032A08D008E008F10D
:10289000070020F00702F2E80201904603E080B250
:1028A000042A00D1C0B24FF0000922072AD532789D
:1028B000702A07D0DDF800C08CF0100C5CEA0B0C1D
:1028C00005D00EE040228DF80420012208E050EAF5
:1028D000010306D030238DF804308DF80520022244
:1028E0009146009B83F0080353EA0B030AD150EA98
:1028F000010201D1620705D530228DF804204FF086
:1029000001097F1E3278582A04D039A20C920CAAF1
:1029100002920BE03BA2F9E75B46009AFDF777FDD8
:102920000C9B9B5C029A521E0292137050EA0102A9
:10293000F2D1029804A9081A00F1200B600702D511
:1029400024F4803400E001275F4502DDA7EB0B0093
:1029500000E0002000EB0B01009003984944401A6E
:102960000390E00306D453462146179A039800F0DB
:10297000A9F90544002706E001A85246C05D179951
:1029800090476D1C7F1C4F45F6DBE0030CD553468A
:102990002146179A039800F095F9054404E0302089
:1029A0005246179990476D1C0099481E00900029C7
:1029B000F5DC08E00298029952460078491C029121
:1029C000179990476D1CBBF10001ABF1010BF1DCD5
:1029D0005BE100F065F90544761C307800287FF44F
:1029E0000DAE19B02846BDE8F08F0000092801009F
:1029F0003031323334353637383961626364656675
:102A00000000000030313233343536373839414236
:102A10004344454600000000600700D4062708F143
:102A2000070020F00700F0E80223804603F0004C86
:102A30005FEA0C0001D097A009E0200501D596A01F
:102A400005E0E00701D095A001E0AFF24C00139043
:102A5000307823F0004365280CD006DC452809D0E7
:102A600046281DD047287FD13BE0662818D067282C
:102A70007AD136E00021112F01DB112000E0781C13
:102A8000CDE9000104A90CA8FFF7EEFCDDE90D017A
:102A90000C9A4FF0000B07F10109109200914EE0E3
:102AA0004FF000400097CDE9011004A90CA8FFF7F2
:102AB000DBFCDDE90D020C9B0F994FF0000B9146FA
:102AC0001093009211B9791C00EB0109B7EB0900D2
:102AD00003D4C0F1FF3B07F10109A9EB0700019006
:102AE00042E0012F00DA01270021112F01DD112022
:102AF00000E03846CDE9000104A90CA8FFF7B4FCBA
:102B0000DDE90D010C9A00914FF0000BB9461092CF
:102B100021070FD4009A4A4503DA914601E0A9F152
:102B20000109B9F1010F05DD109AA9F10101515C0C
:102B30003029F4D0B84202DA10F1040F03DA01218F
:102B4000CDE9011010E0002803DC8344A9EB00016B
:102B500002E0411C494500DD8946A0EB0B00401C0A
:102B600001904FF000400290200705D4019848459D
:102B700002DB4FF0FF30019000208DF84B000298EF
:102B80000DF14B07B0F1004F25D002200C902B2007
:102B90000D90029800280CDA404202902D200D90F2
:102BA00007E00A210298FDF71CFC3031029007F87B
:102BB000011D0C99481E0C900029F2DC0298002897
:102BC000EFD1791E0D980870307800F0200040F0A9
:102BD000450007F8020D11A8C01BC01D02901398F4
:102BE000007800B1012000EB0901019801EBE071D0
:102BF000029801440398401A401E0390E00306D453
:102C000053462146179A039800F05CF80544139840
:102C1000007818B15246179990476D1CE00323D5F0
:102C200053462146179A039800F04CF805441BE0E0
:102C3000BBF1000F07DB0098584504DD1098179989
:102C400010F80B0001E01799302052469047019888
:102C50000BF1010B401E05F10105019004D12E205E
:102C60005246179990476D1CB9F10001A9F101096D
:102C7000DEDC05E017F8010B5246179990476D1CF2
:102C80000299481E02900029F4DC53462146179A07
:102C900003989EE62D0000002B000000200000009D
:102CA0002DE9F041044600251E461746880404D449
:102CB00005E039462020B0476D1C641EF9D5284632
:102CC000BDE8F0812DE9F041044600251E469046FE
:102CD000C80301D5302700E02027880404D505E08B
:102CE00041463846B0476D1C641EF9D52846BDE8FC
:102CF000F0810A68531C0B601070704742F6E06365
:102D000003E01946491E89B2FCD2401E80B2F8D2B7
:102D1000704703E00A21491E89B2FCD2401E80B2EE
:102D2000F8D2704713B54FF47A730122694602480E
:102D3000FEF7E4FC00981CBDF4040020FEF7DAF86E
:102D4000FFF791FAFEF774FEFEF7C6FEFEF7E0FE0F
:102D5000FEF73EFFFEF751FF07A214210320FFF705
:102D600023F808A21E210520FFF71EF8FEF700FE3B
:102D700000F019F8FEE70000534750333020446557
:102D80006D6F000057656C636F6D65000146002034
:102D9000842900D0C81C704710B500B9012000F08C
:102DA000ADFB002010BD10B500F0F4FB002010BDFD
:102DB0007FB50D4604464169B0F9080081B1A169AB
:102DC00071B1FFF7E3FFD4E905128DE80700D4E9FC
:102DD00000102B46226900F0D0FE039004B070BDB5
:102DE000FFF7D4FF03A9CDE90001208A2B4682B268
:102DF000D4E9001000F094FE012801D00020EDE796
:102E00000398EBE72DE9F041184E0F46044675692B
:102E10003068001D00F0ACFA38B9306890F82C101A
:102E200001208840B1698143B161601C07D137B18D
:102E30003168BDE8F0410E48091D00F0DFBA306886
:102E40002C44AC424460316805D2B068BDE8F04122
:102E5000091D00F0BBBA7068091D00F0B7FA306BAD
:102E6000844200D23463BDE8F08100003C000020C1
:102E7000580600202DE9F041054600F0CBFA2E4E11
:102E80003069401C306130682C4F10B1F06940B39C
:102E90002DE035603069012829D1002404EB84003D
:102EA00007EB800000F084FA641C072CF6D323485B
:102EB0008C3000F07DFA2148A03000F079FA1F48EC
:102EC000B43000F075FA1D48C83000F071FA1B48A4
:102ED000DC3000F06DFA19488C3070601430B0604E
:102EE00005E03068E96AC06A884200D83560F06A57
:102EF0000121401CF062E86AB26981401143B1616E
:102F000000EB800007EB8000291D00F077FA00F04D
:102F1000A1FAF06900280CD03068E96AC06A8842DA
:102F200007D207494FF080500860BFF34F8FBFF3BF
:102F30006F8FBDE8F08100003C0000207C05002080
:102F400004ED00E030B4026C0B46002A0BD0C168DF
:102F50001144C1604468A14201D30168C16030BC22
:102F60001846FDF73DB930BC70472DE9F041856B3F
:102F7000174604460026026C82B1C7B1E068FDF72F
:102F80002FF9E168206C091AE1602268914202D2AF
:102F90006168081AE060022F16D017E02068A8B90F
:102FA000606800F089FE0646002060600EE0A068C0
:102FB000FDF716F9216CA0680844A060616888429A
:102FC00004D32068A06001E005B16D1E6D1CA563EF
:102FD0003046BDE8F08110B5044690F8510058B174
:102FE00001280CD002280FD0502080F31188BFF3A5
:102FF0004F8FBFF36F8FFEE7206B00F03FFA204644
:10300000BDE8104000F03ABA10BD000010484FF47F
:10301000C051420706D0C01D0D4920F00700411ADB
:10302000C1F5C0510B4A00230144C2E9000308392D
:10303000103A21F0070111604B600B600B1AC0E9D8
:10304000001393604FF000405360D0607047000061
:103050006C06002088000020134E144DA6F1C8070E
:103060004FF08058DFF8489011E000F0D3F9F06895
:10307000C468201D00F07CF92869401E2861E868BA
:10308000401EE86000F0E6F92046FFF7A4FFE8687C
:103090000028EAD138680128F9D9C9F80080BFF3BF
:1030A0004F8FBFF36F8FF2E7440600203C000020F3
:1030B00004ED00E00346009829B10260C0E90F3139
:1030C000012100F061BB0060F8E72DE9F0479A4666
:1030D000DDE9098481466FF00303206B03EB820274
:1030E0001044089D20F00706700707D0502080F399
:1030F0001188BFF34F8FBFF36F8FFEE723180A5C71
:1031000083F834200A5C12B1401C1028F6D3002743
:1031100084F84370072D00D30625E562C4E91157F2
:10312000201D00F050F904F1180000F04CF9246162
:10313000C5F107006462A061E76484F850705246EC
:103140004946304600F002F92060B8F1000F01D086
:10315000C8F80040BDE8F08730B5114900E01146DD
:103160000A688242FBD34B685C18844203D14068F2
:1031700018444860084643681C18944209D1084C1A
:10318000103C2468A24209D052681A4442600A687E
:1031900012680260814200D0086030BD0460F9E727
:1031A0008800002010B5044600F034F9A06B20B16F
:1031B000002400F04FF9204610BD0124F9E700007B
:1031C00006484168096829B14168C968C968496801
:1031D000016370474FF0FF31FAE700003C00002028
:1031E00008484068401C4FF0500080F3118804D01C
:1031F000BFF34F8FBFF36F8FFEE7BFF34F8FBFF368
:103200006F8FFEE7900000202DE9F041044600F0AA
:1032100001F994F9455004F1240609E0606A48B1C7
:10322000304600F095FD08B100F096F96D1E6DB2C4
:10323000002DF3DC4FF0FF3684F8456000F00AF90A
:1032400000F0E8F894F9445004F1100709E020690F
:1032500048B1384600F07CFD08B100F07DF96D1EE4
:103260006DB2002DF3DC84F84460BDE8F04100F05D
:10327000F1B800002DE9F0410546002600F0C0F944
:10328000314F386808B9FFF7C1FEF86805424BD1E5
:10329000C5B3083568070ED005F00700C0F1080077
:1032A0000544680707D0502080F31188BFF34F8F83
:1032B000BFF36F8FFEE72DB37868854234D822497B
:1032C00010310846046801E0214604466068A842BF
:1032D00002D220680028F7D13868844224D00E68D2
:1032E0002068086060680836411B10290FD96019F2
:1032F000420708D0502080F31188BFF34F8FBFF3EF
:103300006F8FFEE710E041606560FFF725FF6168A1
:103310007868401A7860BA68904200D2B860F8685D
:1033200001430020C4E9000100F04CFD700707D004
:10333000502080F31188BFF34F8FBFF36F8FFEE7EC
:103340003046BDE8F08100007800002010B5031F72
:103350004FF080741C601B1F21F001011960191FC0
:10336000024B0B60143940380A6010BDE13100088F
:10337000D0E9013201699A60D0E901235A604A68B4
:10338000824201D182684A60002202610868401EC0
:103390000860086870470000044B036003F15400A4
:1033A00008604FF48070106070470000A00000209B
:1033B00000F108014FF0FF32C0E90112C160016164
:1033C00000210160704700210161704730B50C6831
:1033D000621C02D000F1080202E0026904E01A4611
:1033E00053681D68A542FAD953684B6099608A609A
:1033F000516008610168491C016030BD42684A6043
:1034000093688B6093685960916008610168491CFA
:1034100001607047502080F31188BFF34F8FBFF3D6
:103420006F8F0A494868401C486001280CD1084841
:10343000006810F0FF0F07D0502080F31188BFF311
:103440004F8FBFF36F8FFEE77047000090000020A2
:1034500004ED00E00849486828B1401E486001D1E9
:1034600080F311887047502080F31188BFF34F8F8D
:10347000BFF36F8FFEE700009000002070B50028BA
:1034800027D0144DA0F108046068E968084207D10C
:10349000502080F31188BFF34F8FBFF36F8FFEE78B
:1034A00022683AB1502080F31188BFF34F8FBFF3E9
:1034B0006F8FFEE78843606000F0A2F8606869687B
:1034C000084468602046FFF747FEBDE8704000F002
:1034D00079BC70BD780000204FF0E0200021016130
:1034E000816105494FF47A720968B1FBF2F1491E16
:1034F00041610721016170473800002010B50200CA
:1035000014D00F48806B38B1502080F31188BFF37E
:103510004F8FBFF36F8FFEE700F072F80021104667
:10352000FFF770FC00F04EFC002807D105494FF072
:1035300080500860BFF34F8FBFF36F8F10BD000046
:103540003C00002004ED00E002498A6A02604969FB
:10355000416070473C0000200149012048627047EB
:103560003C00002010B50C4650B1094909681831DB
:10357000FFF72CFF2046BDE810400121FFF742BCB9
:10358000502080F31188BFF34F8FBFF36F8FFEE79A
:103590003C00002010B586B00024039405AA04A9BD
:1035A00003A80494FFF7F8FEDDE903010094CDE9D8
:1035B000011000230EA11048059A00F0DEFA0F4911
:1035C0000028486311D0502080F31188BFF34F8F3B
:1035D000BFF36F8F4FF0FF3008630120C8614C616B
:1035E00006B0BDE8104000F041B806B010BD0000C4
:1035F00049444C4500000000593000083C000020C0
:103600000248816B491C8163704700003C00002028
:10361000144A906B10B10120506270470020506234
:1036200090691149B0FA80F0C0F11F0000EB8000F2
:1036300051F820306BB101EB800000F108034168C4
:1036400049684160994201D149684160C868106089
:103650007047502080F31188BFF34F8FBFF36F8FF7
:10366000FEE700003C0000207C0500201CB5264938
:1036700008780190FF20087008788DF800009DF808
:1036800000009DF8002000F0F000904207D050208C
:1036900080F31188BFF34F8FBFF36F8FFEE79DF864
:1036A00000001A4B00F0500018700720986006E0E8
:1036B000401E98609DF8000040008DF800009DF8C5
:1036C000000000069868F3D4032807D0502080F348
:1036D0001188BFF34F8FBFF36F8FFEE74FF4407039
:1036E0009860019808700A48016841F4700101600F
:1036F000016841F070410160FFF7EEFE0020586064
:10370000FCF712FD00201CBD00E400E0900000204A
:1037100020ED00E010B5502080F31188BFF34F8FEB
:10372000BFF36F8F00F064FA18B104494FF0805076
:103730000860002080F3118810BD000004ED00E057
:10374000F8B517460E46050014D0DEB105FB06F0AD
:103750004830FFF78FFD04000AD0002084F84600AF
:1037600004F148023B46314628460094FFF7A2FC8C
:103770002046F8BD502080F31188BFF34F8FBFF370
:103780006F8FFEE70020E3E770B50D46040025D0FB
:10379000FFF740FED4E90F20216802FB00116160B1
:1037A0000021A1632168A1600A46D4E90F01401EEF
:1037B00000FB0121E16021464FF0FF3001F8440F8A
:1037C000487004F110008DB1FFF7F2FD04F1240000
:1037D000FFF7EEFDFFF73EFE012070BD502080F3A5
:1037E0001188BFF34F8FBFF36F8FFEE72169002968
:1037F000F0D000F0ADFA0028ECD004494FF0805032
:103800000860BFF34F8FBFF36F8FE3E704ED00E075
:103810002DE9FF4F83B01F468B4604004FF0000692
:1038200003D0BBF1000F08D011E0502080F31188C5
:10383000BFF34F8FBFF36F8FFEE7206C38B150207E
:1038400080F31188BFF34F8FBFF36F8FFEE7022F16
:103850000AD1E06B012807D0502080F31188BFF314
:103860004F8FBFF36F8FFEE700F0B4F9DFF80091E0
:103870004FF0000A4FF0805848B9059838B15020F1
:1038800080F31188BFF34F8FBFF36F8FFEE7FFF711
:10389000C1FDA06BE16B884205D3022F03D00598D0
:1038A000C8B1DEB11EE03A4659462046FFF75DFB3F
:1038B000616A19B104F1240000F04AFA28B1C9F88C
:1038C0000080BFF34F8FBFF36F8FFFF7C3FD012061
:1038D00007B0BDE8F08FFFF7BDFD21E06846FFF7B8
:1038E00033FE0126FFF7B6FDFFF78AFEFFF792FDD4
:1038F00094F94400401C01D184F844A094F9450097
:10390000401C01D184F845A0FFF7A4FD05A9684635
:1039100000F0CCF830B12046FFF776FC00F052FA08
:103920000020D5E7FFF776FDA06BE16B884201D15F
:10393000012500E00025FFF78DFD95B104F1100091
:103940000599FFF70FFE2046FFF75EFC00F03AFAFC
:1039500000289CD1C9F80080BFF34F8FBFF36F8F51
:1039600095E72046FFF750FC00F02CFA8FE70000A7
:1039700004ED00E02DE9F74783B08A4604004FF0DC
:10398000000603D0BAF1000F08D011E0502080F3F8
:103990001188BFF34F8FBFF36F8FFEE7206C38B1F4
:1039A000502080F31188BFF34F8FBFF36F8FFEE776
:1039B00000F010F9DFF8F09000274FF0805848B978
:1039C000059838B1502080F31188BFF34F8FBFF3B3
:1039D0006F8FFEE7FFF71EFDA56BC5B15146204670
:1039E000FFF7B0FA6D1EA563206950B104F1100015
:1039F00000F0AEF928B1C9F80080BFF34F8FBFF3D4
:103A00006F8FFFF727FD012006B0BDE8F08705980E
:103A100008B11EB106E0FFF71DFD27E06846FFF77D
:103A200093FD0126FFF716FDFFF7EAFDFFF7F2FC15
:103A300094F94400401C01D184F8447094F9450085
:103A4000401C01D184F84570FFF704FD05A96846C4
:103A500000F02CF8002820460AD0FFF7D5FB00F034
:103A6000B1F92046FFF79EFB0028B3D00020CBE73A
:103A7000FFF798FB90B104F124000599FFF772FD60
:103A80002046FFF7C1FB00F09DF90028A2D1C9F83C
:103A90000080BFF34F8FBFF36F8F9BE72046FFF788
:103AA000B3FB00F08FF995E704ED00E02DE9F0415C
:103AB0000C46050011D0C4B1FFF7ACFC174E71697C
:103AC0006B682268C81A571C17D02F68B66AB742AD
:103AD00019D08B4217D8012410E0502080F31188B0
:103AE000BFF34F8FBFF36F8FFEE7502080F3118835
:103AF000BFF34F8FBFF36F8FFEE70024FFF7AAFCE1
:103B00002046BDE8F081824205D9101A206028467F
:103B1000FFF71AFDF1E700202060DCE73C00002001
:103B20002DE9FF5F8346DDE90E87994616468A46F2
:103B30009000FFF79FFB05001CD05420FFF79AFB75
:103B4000040014D00020256384F85100CDE9024020
:103B5000CDE900874B46324651465846FFF7B5FA45
:103B60002046FFF787F9012004B0BDE8F09F284602
:103B7000FFF784FC4FF0FF30F6E7F0B585B005465F
:103B8000DDE90B040A9EA8B1E4B154270097206335
:103B9000022084F851000020CDE9024004AF2846FD
:103BA000CDE90067FFF791FA2046FFF763F9049823
:103BB00005B0F0BD502080F31188BFF34F8FBFF3E5
:103BC0006F8FFEE7502080F31188BFF34F8FBFF354
:103BD0006F8FFEE70548C16919B1806B18B10020ED
:103BE0007047012070470220704700003C00002011
:103BF0002DE9F0412E4F0026B86B40B1386A401CC9
:103C00003862786A00B101263046BDE8F0817D69EE
:103C10006D1C7D6113D17868006838B1502080F345
:103C20001188BFF34F8FBFF36F8FFEE77868B968D5
:103C30007960B860B86A401CB862FFF7C1FA386BA7
:103C4000DFF87080854209D37868006880B17868B1
:103C5000C068C468606885420DD238633868C06A3D
:103C600000EB800158F821000128CAD90126C8E7D5
:103C70004FF0FF30F1E7201DFFF77AFBA06A18B183
:103C800004F11800FFF774FBE06A0121BA69814072
:103C90001143B96100EB800108EB8100211DFFF7A2
:103CA000ADFBE06A3968C96A8842CDD30126CBE70B
:103CB0003C0000207C05002070B504004FF000009F
:103CC00041D0214D29688C4207D0502080F31188C3
:103CD000BFF34F8FBFF36F8FFEE7A16C71B1491E29
:103CE000A164636CE26A9A422DD000292BD1201D79
:103CF000FFF73EFB1549012240B112E0502080F34E
:103D00001188BFF34F8FBFF36F8FFEE7E06A00EBC0
:103D1000800351F8233023B9AB6902FA00F08343E2
:103D2000AB61606CE062C0F10700A061E06AAB6962
:103D300082401A43AA6100EB800001EB8000211D44
:103D4000FFF75CFB012070BD3C0000207C050020DB
:103D50002DE9F041C068C468ACB104F11800074611
:103D6000FFF706FB154DA86B0126A0B13946144894
:103D7000FFF744FBE06A2968C96A88421CD9012020
:103D80006E62BDE8F081502080F31188BFF34F8F41
:103D9000BFF36F8FFEE7201DFFF7EAFAE06AAA691A
:103DA00006FA00F11143A961054900EB8000B4391E
:103DB00001EB8000211DDBE70020E2E73C00002052
:103DC000300600202DE9F0472C4D00242746A86B33
:103DD00038B1FFF71FFBA86B401EA863A86B40B16A
:103DE00046E0502080F31188BFF34F8FBFF36F8FF1
:103DF000FEE7286922490126D0B3A1F1B40988461B
:103E0000D8F80010E9B1D8F80C00C46804F1180023
:103E1000FFF7AEFA201DFFF7ABFAE06AAA6906FACF
:103E200000F11143A96100EB800109EB8100211D24
:103E3000FFF7E4FAE06A2968C96A8842E0D36E6253
:103E4000DEE70CB1FFF7BCF92C6A3CB1FFF7D0FEFE
:103E500000B16E62641EF9D100202862686A38B130
:103E60000849012738070860BFF34F8FBFF36F8FF2
:103E7000FFF7F0FA3846BDE8F08700003C0000206C
:103E80003006002004ED00E07847000847220008D3
:103E9000FDFF0000000000008000000000000000A6
:103EA0000000000048470008091F0008FDFF00004F
:103EB0000000000080000000000000000000000082
:103EC00060470008E9180008FDFF0000000000003E
:103ED00080000000000000000000000054470008BF
:103EE0004D1B0008FDFF00000000000080000000E6
:103EF000000000000000000070470008291E0008B4
:103F0000FDFF000000000000800000000000000035
:103F1000000000006847000895080008FDFF000049
:103F20000000000080000000000000000000000011
:103F30000000000000000000010203040607080959
:103F40000000000001020304000000000000000067
:103F5000000000000000000000FE02020202020257
:103F6000003F202020202020000000000000000052
:103F7000000000000000000000FE02020202020237
:103F8000003F20202020202000FE02020202020228
:103F9000003F20202020202000FE02020202020218
:103FA000003F20202020202000FE02020202020208
:103FB000003F20202020202000FE020202020202F8
:103FC000003F20202020202000FE020202020202E8
:103FD000003F2020202020200000000000000000E2
:103FE00000000000000000000000000000000000D1
:103FF00000000000000000000000000000000000C1
:10400000000000000000000000FE020202020202A6
:10401000003F20202020202000FE02020202020297
:10402000003F20202020202000FE02020202020287
:10403000003F20202020202000FE02020202020277
:10404000003F20202020202000FE02020202020267
:10405000003F20202020202000FE02020202020257
:10406000003F20202020202000FE02020202020247
:10407000003F20202020202000FE02020202020237
:10408000003F20202020202000FE02020202020227
:10409000003F20202020202000FE02020202020217
:1040A000003F20202020202000FE02020202020207
:1040B000003F20202020202000FE020202020202F7
:1040C000003F20202020202000FE020202020202E7
:1040D000003F20202020202000FE020202020202D7
:1040E000003F20202020202000FE020202020202C7
:1040F000003F20202020202000FE020202020202B7
:10410000003F2020202020200000000000000000B0
:10411000000000000000000000000000000000009F
:10412000000000000000000000000000000000008F
:10413000000000000000000000000000000000007F
:10414000000000000000000000000000000000006F
:104150000000000000000000000000F80000000067
:10416000000000330000000000100C02100C0200E0
:1041700000000000000000000040C07840C078004F
:1041800000043F04043F040000708888FC083000ED
:1041900000182020FF211E00F008F08060180000A9
:1041A00000310C031E211E0000F008887000000082
:1041B0001E21232C1927211000120E0000000000E0
:1041C0000000000000000000000000E018040200F1
:1041D000000000071820400000020418E000000062
:1041E0000040201807000000404080F08040400060
:1041F0000202010F0102020000000000E0000000C6
:10420000000101010F010101000000000000000099
:10421000009070000000000000000000000000009E
:104220000001010101010100000000000000000088
:10423000003030000000000000000000C038040022
:10424000006018070000000000E010080810E000FF
:10425000000F102020100F0000001010F8000000C8
:10426000000020203F202000007008080808F0000F
:10427000003028242221300000300808088870000F
:104280000018202121221C000000804030F800008E
:1042900000060524243F242400F8888888080800A4
:1042A0000019202020110E0000E0108888900000E6
:1042B000000F112020201F0000180808886818002F
:1042C0000000003E010000000070880808887000AF
:1042D000001C222121221C0000F008080810E00028
:1042E0000001122222110F00000000C0C0000000D7
:1042F00000000030300000000000008000000000DE
:10430000000000E0000000000000804020100800D5
:1043100000010204081020000040404040404000DE
:104320000002020202020200000810204080000089
:10433000002010080402010000704808088870007E
:104340000000003037000000C030C828E810E0004E
:10435000071827282F2817000000C038E0000000A9
:10436000203C23020227382008F888888870000043
:10437000203F202020110E00C03008080808380017
:10438000071820202010080008F808080810E0008E
:10439000203F202020100F0008F88888E80810002F
:1043A000203F20202320180008F88888E808100003
:1043B000203F200003000000C0300808083800003B
:1043C00007182020221E020008F808000008F8083C
:1043D000203F210101213F20000808F808080000C3
:1043E0000020203F2020000000000808F8080800F6
:1043F000C08080807F00000008F888C0281808006E
:10440000203F20012638200008F8080000000000A6
:10441000203F20202020300008F8F800F8F808009D
:10442000203F013E013F200008F830C00008F80896
:10443000203F200007183F00E01008080810E000A7
:104440000F10202020100F0008F808080808F000BE
:10445000203F210101010000E01008080810E000E1
:104460000F10282830504F0008F88888888870007E
:10447000203F2000030C3020007088080808380016
:104480000038202121221C00180808F8080818000C
:104490000000203F2000000008F808000008F8088D
:1044A000001F202020201F000878880000C838083E
:1044B000000007380E01000008F800F800F80800B6
:1044C00000033E013E030000081868808068180859
:1044D00020302C03032C30200838C800C8380800CE
:1044E0000000203F2000000010080808C83808001D
:1044F0002038262120201800000000FE02020200C1
:104500000000007F40404000000438C00000000070
:10451000000000010638C00000020202FE00000098
:10452000004040407F000000000004020204000040
:10453000000000000000000000000000000000007B
:104540008080808080808080000202040000000063
:1045500000000000000000000000808080000000DB
:1045600000192424123F200010F000808000000079
:10457000003F112020110E0000000080808000000C
:10458000000E112020201100000080808090F0009B
:10459000001F202020103F2000008080808000002D
:1045A000001F242424241700008080E09090200025
:1045B0000020203F202000000000808080808000BC
:1045C000006B94949493600010F000808080000051
:1045D000203F210000203F2000809898000000002C
:1045E0000020203F2020000000000080989800005C
:1045F00000C08080807F000010F00000808080007C
:10460000203F240629302000001010F80000000090
:104610000020203F2020000080808080808080005B
:10462000203F20003F20003F8080008080800000ED
:10463000203F210000203F2000008080808000007B
:10464000001F202020201F008080008080000000AC
:1046500080FF912020110E0000000080800080006B
:10466000000E11202091FF808080800080808000DB
:1046700020203F21200001000000808080808000F9
:104680000033242424241900008080E0808000006E
:104690000000001F202010008080000000808000AB
:1046A000001F202020103F2080808000808080001C
:1046B00000030C300C0300008080008080008080AC
:1046C000010E300C073806010080808000808000D9
:1046D0000020310E2E3120008080800000808080FC
:1046E000008186781806010000808080808080002C
:1046F0000021302C222130000000000000FC0202CA
:1047000000000000013E404000000000FF000000EB
:1047100000000000FF0000000202FC00000000009A
:1047200040403E01000000000002010202040200BD
:104730000000000000000000000000000000000079
:1047400000000000000000005347503330546173F4
:104750006B0000004F4C45445461736B0000000037
:104760004C45445461736B00424C455461736B007B
:104770005075625461736B0064656661756C745446
:1047800061736B00A447000800000020A000000037
:104790004824000844480008A000002050260000DB
:1047A000582400081E000000000000000000000067
:1047B00005000000000000000000000000000000F4
:1047C00000000000000000000000000000000000E9
:1047D0000100000010000000000000000024F400B0
:1047E00000000000000000000000000000000000C9
:1047F00000000000000000000000000000000000B9
:1048000000000000000000000000000000000000A8
:104810000000000000000000000000000000000098
:104820000000000000000000000000000000000088
:104830000000000000000000AAAAAAAA00000000D0
:044840000000000074
:04000005080000ED02
:00000001FF
